{
  "address": "0xfC9258976FF8B625Fb5fA23d519c322b90Ed037F",
  "abi": [
    {
      "inputs": [
        {
          "internalType": "address",
          "name": "vrfCoordinatorV2",
          "type": "address"
        },
        {
          "internalType": "uint64",
          "name": "subscriptionId",
          "type": "uint64"
        },
        {
          "internalType": "bytes32",
          "name": "gasLane",
          "type": "bytes32"
        },
        {
          "internalType": "uint32",
          "name": "callbackGasLimit",
          "type": "uint32"
        },
        {
          "internalType": "string[]",
          "name": "sadTokenUrisClassS",
          "type": "string[]"
        },
        {
          "internalType": "string[]",
          "name": "sadTokenUrisClassA",
          "type": "string[]"
        },
        {
          "internalType": "string[]",
          "name": "sadTokenUrisClassB",
          "type": "string[]"
        },
        {
          "internalType": "string[]",
          "name": "happyTokenUrisClassS",
          "type": "string[]"
        },
        {
          "internalType": "string[]",
          "name": "happyTokenUrisClassA",
          "type": "string[]"
        },
        {
          "internalType": "string[]",
          "name": "happyTokenUrisClassB",
          "type": "string[]"
        }
      ],
      "stateMutability": "nonpayable",
      "type": "constructor"
    },
    {
      "inputs": [],
      "name": "NarutoPanels__RangeOutOfBounds",
      "type": "error"
    },
    {
      "inputs": [],
      "name": "NarutoPanels__SenderAlreadyMinted",
      "type": "error"
    },
    {
      "inputs": [
        {
          "internalType": "address",
          "name": "have",
          "type": "address"
        },
        {
          "internalType": "address",
          "name": "want",
          "type": "address"
        }
      ],
      "name": "OnlyCoordinatorCanFulfill",
      "type": "error"
    },
    {
      "anonymous": false,
      "inputs": [
        {
          "indexed": true,
          "internalType": "address",
          "name": "owner",
          "type": "address"
        },
        {
          "indexed": true,
          "internalType": "address",
          "name": "approved",
          "type": "address"
        },
        {
          "indexed": true,
          "internalType": "uint256",
          "name": "tokenId",
          "type": "uint256"
        }
      ],
      "name": "Approval",
      "type": "event"
    },
    {
      "anonymous": false,
      "inputs": [
        {
          "indexed": true,
          "internalType": "address",
          "name": "owner",
          "type": "address"
        },
        {
          "indexed": true,
          "internalType": "address",
          "name": "operator",
          "type": "address"
        },
        {
          "indexed": false,
          "internalType": "bool",
          "name": "approved",
          "type": "bool"
        }
      ],
      "name": "ApprovalForAll",
      "type": "event"
    },
    {
      "anonymous": false,
      "inputs": [
        {
          "indexed": false,
          "internalType": "uint256",
          "name": "tokenId",
          "type": "uint256"
        },
        {
          "indexed": false,
          "internalType": "address",
          "name": "minter",
          "type": "address"
        }
      ],
      "name": "NftMinted",
      "type": "event"
    },
    {
      "anonymous": false,
      "inputs": [
        {
          "indexed": true,
          "internalType": "uint256",
          "name": "requestId",
          "type": "uint256"
        },
        {
          "indexed": false,
          "internalType": "address",
          "name": "requester",
          "type": "address"
        }
      ],
      "name": "NftRequested",
      "type": "event"
    },
    {
      "anonymous": false,
      "inputs": [
        {
          "indexed": true,
          "internalType": "address",
          "name": "previousOwner",
          "type": "address"
        },
        {
          "indexed": true,
          "internalType": "address",
          "name": "newOwner",
          "type": "address"
        }
      ],
      "name": "OwnershipTransferred",
      "type": "event"
    },
    {
      "anonymous": false,
      "inputs": [
        {
          "indexed": true,
          "internalType": "address",
          "name": "from",
          "type": "address"
        },
        {
          "indexed": true,
          "internalType": "address",
          "name": "to",
          "type": "address"
        },
        {
          "indexed": true,
          "internalType": "uint256",
          "name": "tokenId",
          "type": "uint256"
        }
      ],
      "name": "Transfer",
      "type": "event"
    },
    {
      "inputs": [
        {
          "internalType": "address",
          "name": "to",
          "type": "address"
        },
        {
          "internalType": "uint256",
          "name": "tokenId",
          "type": "uint256"
        }
      ],
      "name": "approve",
      "outputs": [],
      "stateMutability": "nonpayable",
      "type": "function"
    },
    {
      "inputs": [
        {
          "internalType": "address",
          "name": "owner",
          "type": "address"
        }
      ],
      "name": "balanceOf",
      "outputs": [
        {
          "internalType": "uint256",
          "name": "",
          "type": "uint256"
        }
      ],
      "stateMutability": "view",
      "type": "function"
    },
    {
      "inputs": [
        {
          "internalType": "uint256",
          "name": "tokenId",
          "type": "uint256"
        }
      ],
      "name": "getApproved",
      "outputs": [
        {
          "internalType": "address",
          "name": "",
          "type": "address"
        }
      ],
      "stateMutability": "view",
      "type": "function"
    },
    {
      "inputs": [],
      "name": "getChanceArray",
      "outputs": [
        {
          "internalType": "uint8[3]",
          "name": "",
          "type": "uint8[3]"
        }
      ],
      "stateMutability": "pure",
      "type": "function"
    },
    {
      "inputs": [],
      "name": "getCurrentTokenIdCounter",
      "outputs": [
        {
          "internalType": "uint256",
          "name": "",
          "type": "uint256"
        }
      ],
      "stateMutability": "view",
      "type": "function"
    },
    {
      "inputs": [
        {
          "internalType": "uint256",
          "name": "index",
          "type": "uint256"
        }
      ],
      "name": "getHappyTokenUrisClassA",
      "outputs": [
        {
          "internalType": "string",
          "name": "",
          "type": "string"
        }
      ],
      "stateMutability": "view",
      "type": "function"
    },
    {
      "inputs": [
        {
          "internalType": "uint256",
          "name": "index",
          "type": "uint256"
        }
      ],
      "name": "getHappyTokenUrisClassB",
      "outputs": [
        {
          "internalType": "string",
          "name": "",
          "type": "string"
        }
      ],
      "stateMutability": "view",
      "type": "function"
    },
    {
      "inputs": [
        {
          "internalType": "uint256",
          "name": "index",
          "type": "uint256"
        }
      ],
      "name": "getHappyTokenUrisClassS",
      "outputs": [
        {
          "internalType": "string",
          "name": "",
          "type": "string"
        }
      ],
      "stateMutability": "view",
      "type": "function"
    },
    {
      "inputs": [
        {
          "internalType": "uint256",
          "name": "moddedRng",
          "type": "uint256"
        }
      ],
      "name": "getNftTypeFromModdedRng",
      "outputs": [
        {
          "internalType": "uint256",
          "name": "",
          "type": "uint256"
        }
      ],
      "stateMutability": "pure",
      "type": "function"
    },
    {
      "inputs": [
        {
          "internalType": "uint256",
          "name": "index",
          "type": "uint256"
        }
      ],
      "name": "getSadTokenUrisClassA",
      "outputs": [
        {
          "internalType": "string",
          "name": "",
          "type": "string"
        }
      ],
      "stateMutability": "view",
      "type": "function"
    },
    {
      "inputs": [
        {
          "internalType": "uint256",
          "name": "index",
          "type": "uint256"
        }
      ],
      "name": "getSadTokenUrisClassB",
      "outputs": [
        {
          "internalType": "string",
          "name": "",
          "type": "string"
        }
      ],
      "stateMutability": "view",
      "type": "function"
    },
    {
      "inputs": [
        {
          "internalType": "uint256",
          "name": "index",
          "type": "uint256"
        }
      ],
      "name": "getSadTokenUrisClassS",
      "outputs": [
        {
          "internalType": "string",
          "name": "",
          "type": "string"
        }
      ],
      "stateMutability": "view",
      "type": "function"
    },
    {
      "inputs": [
        {
          "internalType": "address",
          "name": "owner",
          "type": "address"
        },
        {
          "internalType": "address",
          "name": "operator",
          "type": "address"
        }
      ],
      "name": "isApprovedForAll",
      "outputs": [
        {
          "internalType": "bool",
          "name": "",
          "type": "bool"
        }
      ],
      "stateMutability": "view",
      "type": "function"
    },
    {
      "inputs": [],
      "name": "name",
      "outputs": [
        {
          "internalType": "string",
          "name": "",
          "type": "string"
        }
      ],
      "stateMutability": "view",
      "type": "function"
    },
    {
      "inputs": [],
      "name": "owner",
      "outputs": [
        {
          "internalType": "address",
          "name": "",
          "type": "address"
        }
      ],
      "stateMutability": "view",
      "type": "function"
    },
    {
      "inputs": [
        {
          "internalType": "uint256",
          "name": "tokenId",
          "type": "uint256"
        }
      ],
      "name": "ownerOf",
      "outputs": [
        {
          "internalType": "address",
          "name": "",
          "type": "address"
        }
      ],
      "stateMutability": "view",
      "type": "function"
    },
    {
      "inputs": [
        {
          "internalType": "uint256",
          "name": "requestId",
          "type": "uint256"
        },
        {
          "internalType": "uint256[]",
          "name": "randomWords",
          "type": "uint256[]"
        }
      ],
      "name": "rawFulfillRandomWords",
      "outputs": [],
      "stateMutability": "nonpayable",
      "type": "function"
    },
    {
      "inputs": [],
      "name": "renounceOwnership",
      "outputs": [],
      "stateMutability": "nonpayable",
      "type": "function"
    },
    {
      "inputs": [],
      "name": "requestNft",
      "outputs": [
        {
          "internalType": "uint256",
          "name": "requestId",
          "type": "uint256"
        }
      ],
      "stateMutability": "nonpayable",
      "type": "function"
    },
    {
      "inputs": [
        {
          "internalType": "address",
          "name": "from",
          "type": "address"
        },
        {
          "internalType": "address",
          "name": "to",
          "type": "address"
        },
        {
          "internalType": "uint256",
          "name": "tokenId",
          "type": "uint256"
        }
      ],
      "name": "safeTransferFrom",
      "outputs": [],
      "stateMutability": "nonpayable",
      "type": "function"
    },
    {
      "inputs": [
        {
          "internalType": "address",
          "name": "from",
          "type": "address"
        },
        {
          "internalType": "address",
          "name": "to",
          "type": "address"
        },
        {
          "internalType": "uint256",
          "name": "tokenId",
          "type": "uint256"
        },
        {
          "internalType": "bytes",
          "name": "_data",
          "type": "bytes"
        }
      ],
      "name": "safeTransferFrom",
      "outputs": [],
      "stateMutability": "nonpayable",
      "type": "function"
    },
    {
      "inputs": [
        {
          "internalType": "address",
          "name": "operator",
          "type": "address"
        },
        {
          "internalType": "bool",
          "name": "approved",
          "type": "bool"
        }
      ],
      "name": "setApprovalForAll",
      "outputs": [],
      "stateMutability": "nonpayable",
      "type": "function"
    },
    {
      "inputs": [
        {
          "internalType": "uint256",
          "name": "tokenId",
          "type": "uint256"
        }
      ],
      "name": "setHappyTokenURI",
      "outputs": [],
      "stateMutability": "nonpayable",
      "type": "function"
    },
    {
      "inputs": [
        {
          "internalType": "bytes4",
          "name": "interfaceId",
          "type": "bytes4"
        }
      ],
      "name": "supportsInterface",
      "outputs": [
        {
          "internalType": "bool",
          "name": "",
          "type": "bool"
        }
      ],
      "stateMutability": "view",
      "type": "function"
    },
    {
      "inputs": [],
      "name": "symbol",
      "outputs": [
        {
          "internalType": "string",
          "name": "",
          "type": "string"
        }
      ],
      "stateMutability": "view",
      "type": "function"
    },
    {
      "inputs": [
        {
          "internalType": "uint256",
          "name": "tokenId",
          "type": "uint256"
        }
      ],
      "name": "tokenURI",
      "outputs": [
        {
          "internalType": "string",
          "name": "",
          "type": "string"
        }
      ],
      "stateMutability": "view",
      "type": "function"
    },
    {
      "inputs": [
        {
          "internalType": "address",
          "name": "from",
          "type": "address"
        },
        {
          "internalType": "address",
          "name": "to",
          "type": "address"
        },
        {
          "internalType": "uint256",
          "name": "tokenId",
          "type": "uint256"
        }
      ],
      "name": "transferFrom",
      "outputs": [],
      "stateMutability": "nonpayable",
      "type": "function"
    },
    {
      "inputs": [
        {
          "internalType": "address",
          "name": "newOwner",
          "type": "address"
        }
      ],
      "name": "transferOwnership",
      "outputs": [],
      "stateMutability": "nonpayable",
      "type": "function"
    }
  ],
  "transactionHash": "0x1f063688b9261dc289037c56cf62eab5e1e888d622d1c5c9ccd3fe620bf16487",
  "args": [
    "0x6168499c0cFfCaCD319c818142124B7A15E857ab",
    "6039",
    "0xd89b2bf150e3b9e13446986e571fb9cab24b13cea0a43ea20a6049a85cc807cc",
    "500000",
    [
      "ipfs://QmeJpwXjopcppDNMAqzFZvkYGiZYnv13n3J3QAi21Msmnw/Sad Minato.json",
      "ipfs://QmeJpwXjopcppDNMAqzFZvkYGiZYnv13n3J3QAi21Msmnw/Sad Itachi.json",
      "ipfs://QmeJpwXjopcppDNMAqzFZvkYGiZYnv13n3J3QAi21Msmnw/Sad Madara.json",
      "ipfs://QmeJpwXjopcppDNMAqzFZvkYGiZYnv13n3J3QAi21Msmnw/Sad Hashirama.json",
      "ipfs://QmeJpwXjopcppDNMAqzFZvkYGiZYnv13n3J3QAi21Msmnw/Sad Kaguya.json"
    ],
    [
      "ipfs://QmeJpwXjopcppDNMAqzFZvkYGiZYnv13n3J3QAi21Msmnw/Sad Kakashi.json",
      "ipfs://QmeJpwXjopcppDNMAqzFZvkYGiZYnv13n3J3QAi21Msmnw/Sad Jiraya.json",
      "ipfs://QmeJpwXjopcppDNMAqzFZvkYGiZYnv13n3J3QAi21Msmnw/Sad Tsunade.json",
      "ipfs://QmeJpwXjopcppDNMAqzFZvkYGiZYnv13n3J3QAi21Msmnw/Sad Orochimaru.json",
      "ipfs://QmeJpwXjopcppDNMAqzFZvkYGiZYnv13n3J3QAi21Msmnw/Sad Obito.json",
      "ipfs://QmeJpwXjopcppDNMAqzFZvkYGiZYnv13n3J3QAi21Msmnw/Sad Hiruzen.json",
      "ipfs://QmeJpwXjopcppDNMAqzFZvkYGiZYnv13n3J3QAi21Msmnw/Sad Tobirama.json",
      "ipfs://QmeJpwXjopcppDNMAqzFZvkYGiZYnv13n3J3QAi21Msmnw/Sad Sasuke.json",
      "ipfs://QmeJpwXjopcppDNMAqzFZvkYGiZYnv13n3J3QAi21Msmnw/Sad Naruto.json",
      "ipfs://QmeJpwXjopcppDNMAqzFZvkYGiZYnv13n3J3QAi21Msmnw/Sad Sakura.json",
      "ipfs://QmeJpwXjopcppDNMAqzFZvkYGiZYnv13n3J3QAi21Msmnw/Sad Danzo.json",
      "ipfs://QmeJpwXjopcppDNMAqzFZvkYGiZYnv13n3J3QAi21Msmnw/Sad Shizui.json",
      "ipfs://QmeJpwXjopcppDNMAqzFZvkYGiZYnv13n3J3QAi21Msmnw/Sad Nagato.json",
      "ipfs://QmeJpwXjopcppDNMAqzFZvkYGiZYnv13n3J3QAi21Msmnw/Sad Pain.json",
      "ipfs://QmeJpwXjopcppDNMAqzFZvkYGiZYnv13n3J3QAi21Msmnw/Sad Kakuzu.json",
      "ipfs://QmeJpwXjopcppDNMAqzFZvkYGiZYnv13n3J3QAi21Msmnw/Sad Kisame.json",
      "ipfs://QmeJpwXjopcppDNMAqzFZvkYGiZYnv13n3J3QAi21Msmnw/Sad Killer Bee.json",
      "ipfs://QmeJpwXjopcppDNMAqzFZvkYGiZYnv13n3J3QAi21Msmnw/Sad Raikage.json",
      "ipfs://QmeJpwXjopcppDNMAqzFZvkYGiZYnv13n3J3QAi21Msmnw/Sad Tsuchikage.json",
      "ipfs://QmeJpwXjopcppDNMAqzFZvkYGiZYnv13n3J3QAi21Msmnw/Sad Maito Guy.json"
    ],
    [
      "ipfs://QmeJpwXjopcppDNMAqzFZvkYGiZYnv13n3J3QAi21Msmnw/Sad Kid Naruto.json",
      "ipfs://QmeJpwXjopcppDNMAqzFZvkYGiZYnv13n3J3QAi21Msmnw/Sad Kid Sasuke.json",
      "ipfs://QmeJpwXjopcppDNMAqzFZvkYGiZYnv13n3J3QAi21Msmnw/Sad Kid Sakura.json",
      "ipfs://QmeJpwXjopcppDNMAqzFZvkYGiZYnv13n3J3QAi21Msmnw/Sad Shikamaru.json",
      "ipfs://QmeJpwXjopcppDNMAqzFZvkYGiZYnv13n3J3QAi21Msmnw/Sad Asuma.json",
      "ipfs://QmeJpwXjopcppDNMAqzFZvkYGiZYnv13n3J3QAi21Msmnw/Sad Zabuza.json",
      "ipfs://QmeJpwXjopcppDNMAqzFZvkYGiZYnv13n3J3QAi21Msmnw/Sad Haku.json",
      "ipfs://QmeJpwXjopcppDNMAqzFZvkYGiZYnv13n3J3QAi21Msmnw/Sad Hinata.jpeg.json",
      "ipfs://QmeJpwXjopcppDNMAqzFZvkYGiZYnv13n3J3QAi21Msmnw/Sad Choji.json",
      "ipfs://QmeJpwXjopcppDNMAqzFZvkYGiZYnv13n3J3QAi21Msmnw/Sad Ino.json",
      "ipfs://QmeJpwXjopcppDNMAqzFZvkYGiZYnv13n3J3QAi21Msmnw/Sad Mizukage.json",
      "ipfs://QmeJpwXjopcppDNMAqzFZvkYGiZYnv13n3J3QAi21Msmnw/Sad Gaara.json",
      "ipfs://QmeJpwXjopcppDNMAqzFZvkYGiZYnv13n3J3QAi21Msmnw/Sad Kankuro.json",
      "ipfs://QmeJpwXjopcppDNMAqzFZvkYGiZYnv13n3J3QAi21Msmnw/Sad Temari.json",
      "ipfs://QmeJpwXjopcppDNMAqzFZvkYGiZYnv13n3J3QAi21Msmnw/Sad Lee.json",
      "ipfs://QmeJpwXjopcppDNMAqzFZvkYGiZYnv13n3J3QAi21Msmnw/Sad Neji.json",
      "ipfs://QmeJpwXjopcppDNMAqzFZvkYGiZYnv13n3J3QAi21Msmnw/Sad Tenten.json",
      "ipfs://QmeJpwXjopcppDNMAqzFZvkYGiZYnv13n3J3QAi21Msmnw/Sad Shino.json",
      "ipfs://QmeJpwXjopcppDNMAqzFZvkYGiZYnv13n3J3QAi21Msmnw/Sad Shiba.json",
      "ipfs://QmeJpwXjopcppDNMAqzFZvkYGiZYnv13n3J3QAi21Msmnw/Sad Sai.json",
      "ipfs://QmeJpwXjopcppDNMAqzFZvkYGiZYnv13n3J3QAi21Msmnw/Sad Hidan.json",
      "ipfs://QmeJpwXjopcppDNMAqzFZvkYGiZYnv13n3J3QAi21Msmnw/Sad Deidara.json",
      "ipfs://QmeJpwXjopcppDNMAqzFZvkYGiZYnv13n3J3QAi21Msmnw/Sad Zetsu.json",
      "ipfs://QmeJpwXjopcppDNMAqzFZvkYGiZYnv13n3J3QAi21Msmnw/Sad Konohamaru.json",
      "ipfs://QmeJpwXjopcppDNMAqzFZvkYGiZYnv13n3J3QAi21Msmnw/Sad Kimimaro.json"
    ],
    [
      "ipfs://QmeJpwXjopcppDNMAqzFZvkYGiZYnv13n3J3QAi21Msmnw/Minato.json",
      "ipfs://QmeJpwXjopcppDNMAqzFZvkYGiZYnv13n3J3QAi21Msmnw/Itachi.json",
      "ipfs://QmeJpwXjopcppDNMAqzFZvkYGiZYnv13n3J3QAi21Msmnw/Madara.json",
      "ipfs://QmeJpwXjopcppDNMAqzFZvkYGiZYnv13n3J3QAi21Msmnw/Hashirama.json",
      "ipfs://QmeJpwXjopcppDNMAqzFZvkYGiZYnv13n3J3QAi21Msmnw/Kaguya.json"
    ],
    [
      "ipfs://QmeJpwXjopcppDNMAqzFZvkYGiZYnv13n3J3QAi21Msmnw/Kakashi.json",
      "ipfs://QmeJpwXjopcppDNMAqzFZvkYGiZYnv13n3J3QAi21Msmnw/Jiraya.json",
      "ipfs://QmeJpwXjopcppDNMAqzFZvkYGiZYnv13n3J3QAi21Msmnw/Tsunade.json",
      "ipfs://QmeJpwXjopcppDNMAqzFZvkYGiZYnv13n3J3QAi21Msmnw/Orochimaru.json",
      "ipfs://QmeJpwXjopcppDNMAqzFZvkYGiZYnv13n3J3QAi21Msmnw/Obito.json",
      "ipfs://QmeJpwXjopcppDNMAqzFZvkYGiZYnv13n3J3QAi21Msmnw/Hiruzen.json",
      "ipfs://QmeJpwXjopcppDNMAqzFZvkYGiZYnv13n3J3QAi21Msmnw/Tobirama.json",
      "ipfs://QmeJpwXjopcppDNMAqzFZvkYGiZYnv13n3J3QAi21Msmnw/Sasuke.json",
      "ipfs://QmeJpwXjopcppDNMAqzFZvkYGiZYnv13n3J3QAi21Msmnw/Naruto.json",
      "ipfs://QmeJpwXjopcppDNMAqzFZvkYGiZYnv13n3J3QAi21Msmnw/Sakura.json",
      "ipfs://QmeJpwXjopcppDNMAqzFZvkYGiZYnv13n3J3QAi21Msmnw/Danzo.json",
      "ipfs://QmeJpwXjopcppDNMAqzFZvkYGiZYnv13n3J3QAi21Msmnw/Shizui.json",
      "ipfs://QmeJpwXjopcppDNMAqzFZvkYGiZYnv13n3J3QAi21Msmnw/Nagato.json",
      "ipfs://QmeJpwXjopcppDNMAqzFZvkYGiZYnv13n3J3QAi21Msmnw/Pain.json",
      "ipfs://QmeJpwXjopcppDNMAqzFZvkYGiZYnv13n3J3QAi21Msmnw/Kakuzu.json",
      "ipfs://QmeJpwXjopcppDNMAqzFZvkYGiZYnv13n3J3QAi21Msmnw/Kisame.json",
      "ipfs://QmeJpwXjopcppDNMAqzFZvkYGiZYnv13n3J3QAi21Msmnw/Killer Bee.json",
      "ipfs://QmeJpwXjopcppDNMAqzFZvkYGiZYnv13n3J3QAi21Msmnw/Raikage.json",
      "ipfs://QmeJpwXjopcppDNMAqzFZvkYGiZYnv13n3J3QAi21Msmnw/Tsuchikage.json",
      "ipfs://QmeJpwXjopcppDNMAqzFZvkYGiZYnv13n3J3QAi21Msmnw/Maito Guy.json"
    ],
    [
      "ipfs://QmeJpwXjopcppDNMAqzFZvkYGiZYnv13n3J3QAi21Msmnw/Kid Naruto.json",
      "ipfs://QmeJpwXjopcppDNMAqzFZvkYGiZYnv13n3J3QAi21Msmnw/Kid Sasuke.json",
      "ipfs://QmeJpwXjopcppDNMAqzFZvkYGiZYnv13n3J3QAi21Msmnw/Kid Sakura.json",
      "ipfs://QmeJpwXjopcppDNMAqzFZvkYGiZYnv13n3J3QAi21Msmnw/Shikamaru.json",
      "ipfs://QmeJpwXjopcppDNMAqzFZvkYGiZYnv13n3J3QAi21Msmnw/Asuma.json",
      "ipfs://QmeJpwXjopcppDNMAqzFZvkYGiZYnv13n3J3QAi21Msmnw/Zabuza.json",
      "ipfs://QmeJpwXjopcppDNMAqzFZvkYGiZYnv13n3J3QAi21Msmnw/Haku.json",
      "ipfs://QmeJpwXjopcppDNMAqzFZvkYGiZYnv13n3J3QAi21Msmnw/Hinata.json",
      "ipfs://QmeJpwXjopcppDNMAqzFZvkYGiZYnv13n3J3QAi21Msmnw/Choji.json",
      "ipfs://QmeJpwXjopcppDNMAqzFZvkYGiZYnv13n3J3QAi21Msmnw/Ino.json",
      "ipfs://QmeJpwXjopcppDNMAqzFZvkYGiZYnv13n3J3QAi21Msmnw/Mizukage.json",
      "ipfs://QmeJpwXjopcppDNMAqzFZvkYGiZYnv13n3J3QAi21Msmnw/Gaara.json",
      "ipfs://QmeJpwXjopcppDNMAqzFZvkYGiZYnv13n3J3QAi21Msmnw/Kankuro.json",
      "ipfs://QmeJpwXjopcppDNMAqzFZvkYGiZYnv13n3J3QAi21Msmnw/Temari.json",
      "ipfs://QmeJpwXjopcppDNMAqzFZvkYGiZYnv13n3J3QAi21Msmnw/Lee.json",
      "ipfs://QmeJpwXjopcppDNMAqzFZvkYGiZYnv13n3J3QAi21Msmnw/Neji.json",
      "ipfs://QmeJpwXjopcppDNMAqzFZvkYGiZYnv13n3J3QAi21Msmnw/Tenten.json",
      "ipfs://QmeJpwXjopcppDNMAqzFZvkYGiZYnv13n3J3QAi21Msmnw/Shino.json",
      "ipfs://QmeJpwXjopcppDNMAqzFZvkYGiZYnv13n3J3QAi21Msmnw/Shiba.json",
      "ipfs://QmeJpwXjopcppDNMAqzFZvkYGiZYnv13n3J3QAi21Msmnw/Sai.json",
      "ipfs://QmeJpwXjopcppDNMAqzFZvkYGiZYnv13n3J3QAi21Msmnw/Hidan.json",
      "ipfs://QmeJpwXjopcppDNMAqzFZvkYGiZYnv13n3J3QAi21Msmnw/Deidara.json",
      "ipfs://QmeJpwXjopcppDNMAqzFZvkYGiZYnv13n3J3QAi21Msmnw/Zetsu.json",
      "ipfs://QmeJpwXjopcppDNMAqzFZvkYGiZYnv13n3J3QAi21Msmnw/Konohamaru.json",
      "ipfs://QmeJpwXjopcppDNMAqzFZvkYGiZYnv13n3J3QAi21Msmnw/Kimimaro.json"
    ]
  ],
  "numDeployments": 4,
  "solcInputHash": "8d444f7b872a2e41fe6d8bce51f25c8f",
  "bytecode": "0x6101206040523480156200001257600080fd5b50604051620053f8380380620053f8833981810160405281019062000038919062000658565b896040518060400160405280601181526020017f4e617275746f2050616e656c73204e46540000000000000000000000000000008152506040518060400160405280600381526020017f4e545000000000000000000000000000000000000000000000000000000000008152508160009080519060200190620000bd92919062000348565b508060019080519060200190620000d692919062000348565b5050508073ffffffffffffffffffffffffffffffffffffffff1660808173ffffffffffffffffffffffffffffffffffffffff1660601b815250505062000131620001256200026460201b60201c565b6200026c60201b60201c565b8973ffffffffffffffffffffffffffffffffffffffff1660a08173ffffffffffffffffffffffffffffffffffffffff1660601b815250508760e081815250508867ffffffffffffffff1660c08167ffffffffffffffff1660c01b815250508663ffffffff166101008163ffffffff1660e01b815250508560099080519060200190620001bf929190620003d9565b5084600a9080519060200190620001d8929190620003d9565b5083600b9080519060200190620001f1929190620003d9565b5082600c90805190602001906200020a929190620003d9565b5081600d908051906020019062000223929190620003d9565b5080600e90805190602001906200023c929190620003d9565b506200025460086200033260201b62001e181760201c565b5050505050505050505062000a47565b600033905090565b6000600760009054906101000a900473ffffffffffffffffffffffffffffffffffffffff16905081600760006101000a81548173ffffffffffffffffffffffffffffffffffffffff021916908373ffffffffffffffffffffffffffffffffffffffff1602179055508173ffffffffffffffffffffffffffffffffffffffff168173ffffffffffffffffffffffffffffffffffffffff167f8be0079c531659141344cd1fd0a4f28419497f9722a3daafe3b4186f6b6457e060405160405180910390a35050565b6001816000016000828254019250508190555050565b828054620003569062000904565b90600052602060002090601f0160209004810192826200037a5760008555620003c6565b82601f106200039557805160ff1916838001178555620003c6565b82800160010185558215620003c6579182015b82811115620003c5578251825591602001919060010190620003a8565b5b509050620003d5919062000440565b5090565b8280548282559060005260206000209081019282156200042d579160200282015b828111156200042c5782518290805190602001906200041b92919062000348565b5091602001919060010190620003fa565b5b5090506200043c91906200045f565b5090565b5b808211156200045b57600081600090555060010162000441565b5090565b5b8082111562000483576000818162000479919062000487565b5060010162000460565b5090565b508054620004959062000904565b6000825580601f10620004a95750620004ca565b601f016020900490600052602060002090810190620004c9919062000440565b5b50565b6000620004e4620004de8462000807565b620007de565b905080838252602082019050828560208602820111156200050457600080fd5b60005b858110156200055357815167ffffffffffffffff8111156200052857600080fd5b808601620005378982620005fd565b8552602085019450602084019350505060018101905062000507565b5050509392505050565b6000620005746200056e8462000836565b620007de565b9050828152602081018484840111156200058d57600080fd5b6200059a848285620008ce565b509392505050565b600081519050620005b381620009df565b92915050565b600082601f830112620005cb57600080fd5b8151620005dd848260208601620004cd565b91505092915050565b600081519050620005f781620009f9565b92915050565b600082601f8301126200060f57600080fd5b8151620006218482602086016200055d565b91505092915050565b6000815190506200063b8162000a13565b92915050565b600081519050620006528162000a2d565b92915050565b6000806000806000806000806000806101408b8d0312156200067957600080fd5b6000620006898d828e01620005a2565b9a505060206200069c8d828e0162000641565b9950506040620006af8d828e01620005e6565b9850506060620006c28d828e016200062a565b97505060808b015167ffffffffffffffff811115620006e057600080fd5b620006ee8d828e01620005b9565b96505060a08b015167ffffffffffffffff8111156200070c57600080fd5b6200071a8d828e01620005b9565b95505060c08b015167ffffffffffffffff8111156200073857600080fd5b620007468d828e01620005b9565b94505060e08b015167ffffffffffffffff8111156200076457600080fd5b620007728d828e01620005b9565b9350506101008b015167ffffffffffffffff8111156200079157600080fd5b6200079f8d828e01620005b9565b9250506101208b015167ffffffffffffffff811115620007be57600080fd5b620007cc8d828e01620005b9565b9150509295989b9194979a5092959850565b6000620007ea620007fd565b9050620007f882826200093a565b919050565b6000604051905090565b600067ffffffffffffffff8211156200082557620008246200099f565b5b602082029050602081019050919050565b600067ffffffffffffffff8211156200085457620008536200099f565b5b6200085f82620009ce565b9050602081019050919050565b600062000879826200088a565b9050919050565b6000819050919050565b600073ffffffffffffffffffffffffffffffffffffffff82169050919050565b600063ffffffff82169050919050565b600067ffffffffffffffff82169050919050565b60005b83811015620008ee578082015181840152602081019050620008d1565b83811115620008fe576000848401525b50505050565b600060028204905060018216806200091d57607f821691505b6020821081141562000934576200093362000970565b5b50919050565b6200094582620009ce565b810181811067ffffffffffffffff821117156200096757620009666200099f565b5b80604052505050565b7f4e487b7100000000000000000000000000000000000000000000000000000000600052602260045260246000fd5b7f4e487b7100000000000000000000000000000000000000000000000000000000600052604160045260246000fd5b6000601f19601f8301169050919050565b620009ea816200086c565b8114620009f657600080fd5b50565b62000a048162000880565b811462000a1057600080fd5b50565b62000a1e81620008aa565b811462000a2a57600080fd5b50565b62000a3881620008ba565b811462000a4457600080fd5b50565b60805160601c60a05160601c60c05160c01c60e0516101005160e01c61495962000a9f60003960006115880152600061154401526000611565015260006115080152600081816108ea015261093e01526149596000f3fe608060405234801561001057600080fd5b50600436106101c45760003560e01c806395d89b41116100f9578063c87b56dd11610097578063e985e9c511610071578063e985e9c51461052b578063f2fde38b1461055b578063f42b13de14610577578063f9811860146105a7576101c4565b8063c87b56dd1461049b578063d8efa531146104cb578063e63d0b1c146104fb576101c4565b8063a502e8f7116100d3578063a502e8f714610401578063aa15249114610431578063b88d4fde1461044f578063c35bafba1461046b576101c4565b806395d89b4114610397578063a22cb465146103b5578063a33d04ab146103d1576101c4565b80635dacf5f411610166578063715018a611610140578063715018a6146103355780638098c0f01461033f5780638c6743e01461035b5780638da5cb5b14610379576101c4565b80635dacf5f4146102b75780636352211e146102d557806370a0823114610305576101c4565b8063095ea7b3116101a2578063095ea7b3146102475780631fe543e31461026357806323b872dd1461027f57806342842e0e1461029b576101c4565b806301ffc9a7146101c957806306fdde03146101f9578063081812fc14610217575b600080fd5b6101e360048036038101906101de91906136a0565b6105d7565b6040516101f09190613c67565b60405180910390f35b6102016106b9565b60405161020e9190613cd5565b60405180910390f35b610231600480360381019061022c91906136f2565b61074b565b60405161023e9190613bbc565b60405180910390f35b610261600480360381019061025c9190613664565b6107d0565b005b61027d60048036038101906102789190613744565b6108e8565b005b6102996004803603810190610294919061355e565b6109a8565b005b6102b560048036038101906102b0919061355e565b610a08565b005b6102bf610a28565b6040516102cc9190613c4c565b60405180910390f35b6102ef60048036038101906102ea91906136f2565b610a5c565b6040516102fc9190613bbc565b60405180910390f35b61031f600480360381019061031a91906134f9565b610b0e565b60405161032c9190613f37565b60405180910390f35b61033d610bc6565b005b610359600480360381019061035491906136f2565b610c4e565b005b6103636111a5565b6040516103709190613f37565b60405180910390f35b6103816111b6565b60405161038e9190613bbc565b60405180910390f35b61039f6111e0565b6040516103ac9190613cd5565b60405180910390f35b6103cf60048036038101906103ca9190613628565b611272565b005b6103eb60048036038101906103e691906136f2565b611288565b6040516103f89190613cd5565b60405180910390f35b61041b600480360381019061041691906136f2565b61135e565b6040516104289190613f37565b60405180910390f35b610439611480565b6040516104469190613f37565b60405180910390f35b610469600480360381019061046491906135ad565b6116aa565b005b610485600480360381019061048091906136f2565b61170c565b6040516104929190613cd5565b60405180910390f35b6104b560048036038101906104b091906136f2565b6117e2565b6040516104c29190613cd5565b60405180910390f35b6104e560048036038101906104e091906136f2565b611934565b6040516104f29190613cd5565b60405180910390f35b610515600480360381019061051091906136f2565b611a0a565b6040516105229190613cd5565b60405180910390f35b61054560048036038101906105409190613522565b611ae0565b6040516105529190613c67565b60405180910390f35b610575600480360381019061057091906134f9565b611b74565b005b610591600480360381019061058c91906136f2565b611c6c565b60405161059e9190613cd5565b60405180910390f35b6105c160048036038101906105bc91906136f2565b611d42565b6040516105ce9190613cd5565b60405180910390f35b60007f80ac58cd000000000000000000000000000000000000000000000000000000007bffffffffffffffffffffffffffffffffffffffffffffffffffffffff1916827bffffffffffffffffffffffffffffffffffffffffffffffffffffffff191614806106a257507f5b5e139f000000000000000000000000000000000000000000000000000000007bffffffffffffffffffffffffffffffffffffffffffffffffffffffff1916827bffffffffffffffffffffffffffffffffffffffffffffffffffffffff1916145b806106b257506106b182611e2e565b5b9050919050565b6060600080546106c890614227565b80601f01602080910402602001604051908101604052809291908181526020018280546106f490614227565b80156107415780601f1061071657610100808354040283529160200191610741565b820191906000526020600020905b81548152906001019060200180831161072457829003601f168201915b5050505050905090565b600061075682611e98565b610795576040517f08c379a000000000000000000000000000000000000000000000000000000000815260040161078c90613e97565b60405180910390fd5b6004600083815260200190815260200160002060009054906101000a900473ffffffffffffffffffffffffffffffffffffffff169050919050565b60006107db82610a5c565b90508073ffffffffffffffffffffffffffffffffffffffff168373ffffffffffffffffffffffffffffffffffffffff16141561084c576040517f08c379a000000000000000000000000000000000000000000000000000000000815260040161084390613ef7565b60405180910390fd5b8073ffffffffffffffffffffffffffffffffffffffff1661086b611f04565b73ffffffffffffffffffffffffffffffffffffffff16148061089a575061089981610894611f04565b611ae0565b5b6108d9576040517f08c379a00000000000000000000000000000000000000000000000000000000081526004016108d090613dd7565b60405180910390fd5b6108e38383611f0c565b505050565b7f000000000000000000000000000000000000000000000000000000000000000073ffffffffffffffffffffffffffffffffffffffff163373ffffffffffffffffffffffffffffffffffffffff161461099a57337f00000000000000000000000000000000000000000000000000000000000000006040517f1cf993f4000000000000000000000000000000000000000000000000000000008152600401610991929190613bd7565b60405180910390fd5b6109a48282611fc5565b5050565b6109b96109b3611f04565b826125e0565b6109f8576040517f08c379a00000000000000000000000000000000000000000000000000000000081526004016109ef90613f17565b60405180910390fd5b610a038383836126be565b505050565b610a23838383604051806020016040528060008152506116aa565b505050565b610a306132b8565b6040518060600160405280600560ff168152602001601960ff168152602001603260ff16815250905090565b6000806002600084815260200190815260200160002060009054906101000a900473ffffffffffffffffffffffffffffffffffffffff169050600073ffffffffffffffffffffffffffffffffffffffff168173ffffffffffffffffffffffffffffffffffffffff161415610b05576040517f08c379a0000000000000000000000000000000000000000000000000000000008152600401610afc90613e17565b60405180910390fd5b80915050919050565b60008073ffffffffffffffffffffffffffffffffffffffff168273ffffffffffffffffffffffffffffffffffffffff161415610b7f576040517f08c379a0000000000000000000000000000000000000000000000000000000008152600401610b7690613df7565b60405180910390fd5b600360008373ffffffffffffffffffffffffffffffffffffffff1673ffffffffffffffffffffffffffffffffffffffff168152602001908152602001600020549050919050565b610bce611f04565b73ffffffffffffffffffffffffffffffffffffffff16610bec6111b6565b73ffffffffffffffffffffffffffffffffffffffff1614610c42576040517f08c379a0000000000000000000000000000000000000000000000000000000008152600401610c3990613eb7565b60405180910390fd5b610c4c6000612925565b565b610c56611f04565b73ffffffffffffffffffffffffffffffffffffffff16610c746111b6565b73ffffffffffffffffffffffffffffffffffffffff1614610cca576040517f08c379a0000000000000000000000000000000000000000000000000000000008152600401610cc190613eb7565b60405180910390fd5b6000601060008381526020019081526020016000205490506000610ced8261135e565b905060606000821415610e8157600c600580811115610d35577f4e487b7100000000000000000000000000000000000000000000000000000000600052602160045260246000fd5b84610d4091906142d3565b6005811115610d78577f4e487b7100000000000000000000000000000000000000000000000000000000600052602160045260246000fd5b6005811115610db0577f4e487b7100000000000000000000000000000000000000000000000000000000600052602160045260246000fd5b81548110610de7577f4e487b7100000000000000000000000000000000000000000000000000000000600052603260045260246000fd5b906000526020600020018054610dfc90614227565b80601f0160208091040260200160405190810160405280929190818152602001828054610e2890614227565b8015610e755780601f10610e4a57610100808354040283529160200191610e75565b820191906000526020600020905b815481529060010190602001808311610e5857829003601f168201915b50505050509050611195565b600182141561101157600d601480811115610ec5577f4e487b7100000000000000000000000000000000000000000000000000000000600052602160045260246000fd5b84610ed091906142d3565b6014811115610f08577f4e487b7100000000000000000000000000000000000000000000000000000000600052602160045260246000fd5b6014811115610f40577f4e487b7100000000000000000000000000000000000000000000000000000000600052602160045260246000fd5b81548110610f77577f4e487b7100000000000000000000000000000000000000000000000000000000600052603260045260246000fd5b906000526020600020018054610f8c90614227565b80601f0160208091040260200160405190810160405280929190818152602001828054610fb890614227565b80156110055780601f10610fda57610100808354040283529160200191611005565b820191906000526020600020905b815481529060010190602001808311610fe857829003601f168201915b50505050509050611194565b600e60198081111561104c577f4e487b7100000000000000000000000000000000000000000000000000000000600052602160045260246000fd5b8461105791906142d3565b601981111561108f577f4e487b7100000000000000000000000000000000000000000000000000000000600052602160045260246000fd5b60198111156110c7577f4e487b7100000000000000000000000000000000000000000000000000000000600052602160045260246000fd5b815481106110fe577f4e487b7100000000000000000000000000000000000000000000000000000000600052603260045260246000fd5b90600052602060002001805461111390614227565b80601f016020809104026020016040519081016040528092919081815260200182805461113f90614227565b801561118c5780601f106111615761010080835404028352916020019161118c565b820191906000526020600020905b81548152906001019060200180831161116f57829003601f168201915b505050505090505b5b61119f84826129eb565b50505050565b60006111b16008612a5f565b905090565b6000600760009054906101000a900473ffffffffffffffffffffffffffffffffffffffff16905090565b6060600180546111ef90614227565b80601f016020809104026020016040519081016040528092919081815260200182805461121b90614227565b80156112685780601f1061123d57610100808354040283529160200191611268565b820191906000526020600020905b81548152906001019060200180831161124b57829003601f168201915b5050505050905090565b61128461127d611f04565b8383612a6d565b5050565b6060600e82815481106112c4577f4e487b7100000000000000000000000000000000000000000000000000000000600052603260045260246000fd5b9060005260206000200180546112d990614227565b80601f016020809104026020016040519081016040528092919081815260200182805461130590614227565b80156113525780601f1061132757610100808354040283529160200191611352565b820191906000526020600020905b81548152906001019060200180831161133557829003601f168201915b50505050509050919050565b60008060009050600061136f610a28565b905060005b6003811015611448578285101580156113d757508181600381106113c1577f4e487b7100000000000000000000000000000000000000000000000000000000600052603260045260246000fd5b602002015160ff16836113d4919061406d565b85105b156113e75780935050505061147b565b818160038110611420577f4e487b7100000000000000000000000000000000000000000000000000000000600052603260045260246000fd5b602002015160ff1683611433919061406d565b925080806114409061428a565b915050611374565b506040517f53cd874f00000000000000000000000000000000000000000000000000000000815260040160405180910390fd5b919050565b6000601160003373ffffffffffffffffffffffffffffffffffffffff1673ffffffffffffffffffffffffffffffffffffffff16815260200190815260200160002060009054906101000a900460ff1615611506576040517f2d7ce42e00000000000000000000000000000000000000000000000000000000815260040160405180910390fd5b7f000000000000000000000000000000000000000000000000000000000000000073ffffffffffffffffffffffffffffffffffffffff16635d3b1d307f00000000000000000000000000000000000000000000000000000000000000007f000000000000000000000000000000000000000000000000000000000000000060037f000000000000000000000000000000000000000000000000000000000000000060016040518663ffffffff1660e01b81526004016115c9959493929190613c82565b602060405180830381600087803b1580156115e357600080fd5b505af11580156115f7573d6000803e3d6000fd5b505050506040513d601f19601f8201168201806040525081019061161b919061371b565b905033600f600083815260200190815260200160002060006101000a81548173ffffffffffffffffffffffffffffffffffffffff021916908373ffffffffffffffffffffffffffffffffffffffff160217905550807ff873236e6cc0ecc5be1a9a35c95ee5b8d1ac4cc7bfef0cc5060391d6cc98e26b3360405161169f9190613bbc565b60405180910390a290565b6116bb6116b5611f04565b836125e0565b6116fa576040517f08c379a00000000000000000000000000000000000000000000000000000000081526004016116f190613f17565b60405180910390fd5b61170684848484612bda565b50505050565b6060600d8281548110611748577f4e487b7100000000000000000000000000000000000000000000000000000000600052603260045260246000fd5b90600052602060002001805461175d90614227565b80601f016020809104026020016040519081016040528092919081815260200182805461178990614227565b80156117d65780601f106117ab576101008083540402835291602001916117d6565b820191906000526020600020905b8154815290600101906020018083116117b957829003601f168201915b50505050509050919050565b60606117ed82611e98565b61182c576040517f08c379a000000000000000000000000000000000000000000000000000000000815260040161182390613e77565b60405180910390fd5b600060066000848152602001908152602001600020805461184c90614227565b80601f016020809104026020016040519081016040528092919081815260200182805461187890614227565b80156118c55780601f1061189a576101008083540402835291602001916118c5565b820191906000526020600020905b8154815290600101906020018083116118a857829003601f168201915b5050505050905060006118d6612c36565b90506000815114156118ec57819250505061192f565b600082511115611921578082604051602001611909929190613b98565b6040516020818303038152906040529250505061192f565b61192a84612c4d565b925050505b919050565b606060098281548110611970577f4e487b7100000000000000000000000000000000000000000000000000000000600052603260045260246000fd5b90600052602060002001805461198590614227565b80601f01602080910402602001604051908101604052809291908181526020018280546119b190614227565b80156119fe5780601f106119d3576101008083540402835291602001916119fe565b820191906000526020600020905b8154815290600101906020018083116119e157829003601f168201915b50505050509050919050565b6060600b8281548110611a46577f4e487b7100000000000000000000000000000000000000000000000000000000600052603260045260246000fd5b906000526020600020018054611a5b90614227565b80601f0160208091040260200160405190810160405280929190818152602001828054611a8790614227565b8015611ad45780601f10611aa957610100808354040283529160200191611ad4565b820191906000526020600020905b815481529060010190602001808311611ab757829003601f168201915b50505050509050919050565b6000600560008473ffffffffffffffffffffffffffffffffffffffff1673ffffffffffffffffffffffffffffffffffffffff16815260200190815260200160002060008373ffffffffffffffffffffffffffffffffffffffff1673ffffffffffffffffffffffffffffffffffffffff16815260200190815260200160002060009054906101000a900460ff16905092915050565b611b7c611f04565b73ffffffffffffffffffffffffffffffffffffffff16611b9a6111b6565b73ffffffffffffffffffffffffffffffffffffffff1614611bf0576040517f08c379a0000000000000000000000000000000000000000000000000000000008152600401611be790613eb7565b60405180910390fd5b600073ffffffffffffffffffffffffffffffffffffffff168173ffffffffffffffffffffffffffffffffffffffff161415611c60576040517f08c379a0000000000000000000000000000000000000000000000000000000008152600401611c5790613d17565b60405180910390fd5b611c6981612925565b50565b6060600a8281548110611ca8577f4e487b7100000000000000000000000000000000000000000000000000000000600052603260045260246000fd5b906000526020600020018054611cbd90614227565b80601f0160208091040260200160405190810160405280929190818152602001828054611ce990614227565b8015611d365780601f10611d0b57610100808354040283529160200191611d36565b820191906000526020600020905b815481529060010190602001808311611d1957829003601f168201915b50505050509050919050565b6060600c8281548110611d7e577f4e487b7100000000000000000000000000000000000000000000000000000000600052603260045260246000fd5b906000526020600020018054611d9390614227565b80601f0160208091040260200160405190810160405280929190818152602001828054611dbf90614227565b8015611e0c5780601f10611de157610100808354040283529160200191611e0c565b820191906000526020600020905b815481529060010190602001808311611def57829003601f168201915b50505050509050919050565b6001816000016000828254019250508190555050565b60007f01ffc9a7000000000000000000000000000000000000000000000000000000007bffffffffffffffffffffffffffffffffffffffffffffffffffffffff1916827bffffffffffffffffffffffffffffffffffffffffffffffffffffffff1916149050919050565b60008073ffffffffffffffffffffffffffffffffffffffff166002600084815260200190815260200160002060009054906101000a900473ffffffffffffffffffffffffffffffffffffffff1673ffffffffffffffffffffffffffffffffffffffff1614159050919050565b600033905090565b816004600083815260200190815260200160002060006101000a81548173ffffffffffffffffffffffffffffffffffffffff021916908373ffffffffffffffffffffffffffffffffffffffff160217905550808273ffffffffffffffffffffffffffffffffffffffff16611f7f83610a5c565b73ffffffffffffffffffffffffffffffffffffffff167f8c5be1e5ebec7d5bd14f71427d1e84f3dd0314c0f7b2291e5b200ac8c7c3b92560405160405180910390a45050565b6000600f600084815260200190815260200160002060009054906101000a900473ffffffffffffffffffffffffffffffffffffffff16905060006120096008612a5f565b90506120158282612cf4565b6000603284600081518110612053577f4e487b7100000000000000000000000000000000000000000000000000000000600052603260045260246000fd5b602002602001015161206591906142d3565b90508060106000848152602001908152602001600020819055506001601160008573ffffffffffffffffffffffffffffffffffffffff1673ffffffffffffffffffffffffffffffffffffffff16815260200190815260200160002060006101000a81548160ff02191690831515021790555060006120e28261135e565b90506060600082141561227657600960058081111561212a577f4e487b7100000000000000000000000000000000000000000000000000000000600052602160045260246000fd5b8461213591906142d3565b600581111561216d577f4e487b7100000000000000000000000000000000000000000000000000000000600052602160045260246000fd5b60058111156121a5577f4e487b7100000000000000000000000000000000000000000000000000000000600052602160045260246000fd5b815481106121dc577f4e487b7100000000000000000000000000000000000000000000000000000000600052603260045260246000fd5b9060005260206000200180546121f190614227565b80601f016020809104026020016040519081016040528092919081815260200182805461221d90614227565b801561226a5780601f1061223f5761010080835404028352916020019161226a565b820191906000526020600020905b81548152906001019060200180831161224d57829003601f168201915b5050505050905061258a565b600182141561240657600a6014808111156122ba577f4e487b7100000000000000000000000000000000000000000000000000000000600052602160045260246000fd5b846122c591906142d3565b60148111156122fd577f4e487b7100000000000000000000000000000000000000000000000000000000600052602160045260246000fd5b6014811115612335577f4e487b7100000000000000000000000000000000000000000000000000000000600052602160045260246000fd5b8154811061236c577f4e487b7100000000000000000000000000000000000000000000000000000000600052603260045260246000fd5b90600052602060002001805461238190614227565b80601f01602080910402602001604051908101604052809291908181526020018280546123ad90614227565b80156123fa5780601f106123cf576101008083540402835291602001916123fa565b820191906000526020600020905b8154815290600101906020018083116123dd57829003601f168201915b50505050509050612589565b600b601980811115612441577f4e487b7100000000000000000000000000000000000000000000000000000000600052602160045260246000fd5b8461244c91906142d3565b6019811115612484577f4e487b7100000000000000000000000000000000000000000000000000000000600052602160045260246000fd5b60198111156124bc577f4e487b7100000000000000000000000000000000000000000000000000000000600052602160045260246000fd5b815481106124f3577f4e487b7100000000000000000000000000000000000000000000000000000000600052603260045260246000fd5b90600052602060002001805461250890614227565b80601f016020809104026020016040519081016040528092919081815260200182805461253490614227565b80156125815780601f1061255657610100808354040283529160200191612581565b820191906000526020600020905b81548152906001019060200180831161256457829003601f168201915b505050505090505b5b61259484826129eb565b61259e6008611e18565b7f769eff512f395b679667e0062a0e31dad5d22dbc7e6b87f16c3de7e85e66346084866040516125cf929190613f52565b60405180910390a150505050505050565b60006125eb82611e98565b61262a576040517f08c379a000000000000000000000000000000000000000000000000000000000815260040161262190613db7565b60405180910390fd5b600061263583610a5c565b90508073ffffffffffffffffffffffffffffffffffffffff168473ffffffffffffffffffffffffffffffffffffffff16148061267757506126768185611ae0565b5b806126b557508373ffffffffffffffffffffffffffffffffffffffff1661269d8461074b565b73ffffffffffffffffffffffffffffffffffffffff16145b91505092915050565b8273ffffffffffffffffffffffffffffffffffffffff166126de82610a5c565b73ffffffffffffffffffffffffffffffffffffffff1614612734576040517f08c379a000000000000000000000000000000000000000000000000000000000815260040161272b90613d37565b60405180910390fd5b600073ffffffffffffffffffffffffffffffffffffffff168273ffffffffffffffffffffffffffffffffffffffff1614156127a4576040517f08c379a000000000000000000000000000000000000000000000000000000000815260040161279b90613d77565b60405180910390fd5b6127af838383612d12565b6127ba600082611f0c565b6001600360008573ffffffffffffffffffffffffffffffffffffffff1673ffffffffffffffffffffffffffffffffffffffff168152602001908152602001600020600082825461280a91906140f4565b925050819055506001600360008473ffffffffffffffffffffffffffffffffffffffff1673ffffffffffffffffffffffffffffffffffffffff1681526020019081526020016000206000828254612861919061406d565b92505081905550816002600083815260200190815260200160002060006101000a81548173ffffffffffffffffffffffffffffffffffffffff021916908373ffffffffffffffffffffffffffffffffffffffff160217905550808273ffffffffffffffffffffffffffffffffffffffff168473ffffffffffffffffffffffffffffffffffffffff167fddf252ad1be2c89b69c2b068fc378daa952ba7f163c4a11628f55a4df523b3ef60405160405180910390a4612920838383612d17565b505050565b6000600760009054906101000a900473ffffffffffffffffffffffffffffffffffffffff16905081600760006101000a81548173ffffffffffffffffffffffffffffffffffffffff021916908373ffffffffffffffffffffffffffffffffffffffff1602179055508173ffffffffffffffffffffffffffffffffffffffff168173ffffffffffffffffffffffffffffffffffffffff167f8be0079c531659141344cd1fd0a4f28419497f9722a3daafe3b4186f6b6457e060405160405180910390a35050565b6129f482611e98565b612a33576040517f08c379a0000000000000000000000000000000000000000000000000000000008152600401612a2a90613e37565b60405180910390fd5b80600660008481526020019081526020016000209080519060200190612a5a9291906132da565b505050565b600081600001549050919050565b8173ffffffffffffffffffffffffffffffffffffffff168373ffffffffffffffffffffffffffffffffffffffff161415612adc576040517f08c379a0000000000000000000000000000000000000000000000000000000008152600401612ad390613d97565b60405180910390fd5b80600560008573ffffffffffffffffffffffffffffffffffffffff1673ffffffffffffffffffffffffffffffffffffffff16815260200190815260200160002060008473ffffffffffffffffffffffffffffffffffffffff1673ffffffffffffffffffffffffffffffffffffffff16815260200190815260200160002060006101000a81548160ff0219169083151502179055508173ffffffffffffffffffffffffffffffffffffffff168373ffffffffffffffffffffffffffffffffffffffff167f17307eab39ab6107e8899845ad3d59bd9653f200f220920489ca2b5937696c3183604051612bcd9190613c67565b60405180910390a3505050565b612be58484846126be565b612bf184848484612d1c565b612c30576040517f08c379a0000000000000000000000000000000000000000000000000000000008152600401612c2790613cf7565b60405180910390fd5b50505050565b606060405180602001604052806000815250905090565b6060612c5882611e98565b612c97576040517f08c379a0000000000000000000000000000000000000000000000000000000008152600401612c8e90613ed7565b60405180910390fd5b6000612ca1612c36565b90506000815111612cc15760405180602001604052806000815250612cec565b80612ccb84612eb3565b604051602001612cdc929190613b98565b6040516020818303038152906040525b915050919050565b612d0e828260405180602001604052806000815250613060565b5050565b505050565b505050565b6000612d3d8473ffffffffffffffffffffffffffffffffffffffff166130bb565b15612ea6578373ffffffffffffffffffffffffffffffffffffffff1663150b7a02612d66611f04565b8786866040518563ffffffff1660e01b8152600401612d889493929190613c00565b602060405180830381600087803b158015612da257600080fd5b505af1925050508015612dd357506040513d601f19601f82011682018060405250810190612dd091906136c9565b60015b612e56573d8060008114612e03576040519150601f19603f3d011682016040523d82523d6000602084013e612e08565b606091505b50600081511415612e4e576040517f08c379a0000000000000000000000000000000000000000000000000000000008152600401612e4590613cf7565b60405180910390fd5b805181602001fd5b63150b7a0260e01b7bffffffffffffffffffffffffffffffffffffffffffffffffffffffff1916817bffffffffffffffffffffffffffffffffffffffffffffffffffffffff191614915050612eab565b600190505b949350505050565b60606000821415612efb576040518060400160405280600181526020017f3000000000000000000000000000000000000000000000000000000000000000815250905061305b565b600082905060005b60008214612f2d578080612f169061428a565b915050600a82612f2691906140c3565b9150612f03565b60008167ffffffffffffffff811115612f6f577f4e487b7100000000000000000000000000000000000000000000000000000000600052604160045260246000fd5b6040519080825280601f01601f191660200182016040528015612fa15781602001600182028036833780820191505090505b5090505b6000851461305457600182612fba91906140f4565b9150600a85612fc991906142d3565b6030612fd5919061406d565b60f81b818381518110613011577f4e487b7100000000000000000000000000000000000000000000000000000000600052603260045260246000fd5b60200101907effffffffffffffffffffffffffffffffffffffffffffffffffffffffffffff1916908160001a905350600a8561304d91906140c3565b9450612fa5565b8093505050505b919050565b61306a83836130de565b6130776000848484612d1c565b6130b6576040517f08c379a00000000000000000000000000000000000000000000000000000000081526004016130ad90613cf7565b60405180910390fd5b505050565b6000808273ffffffffffffffffffffffffffffffffffffffff163b119050919050565b600073ffffffffffffffffffffffffffffffffffffffff168273ffffffffffffffffffffffffffffffffffffffff16141561314e576040517f08c379a000000000000000000000000000000000000000000000000000000000815260040161314590613e57565b60405180910390fd5b61315781611e98565b15613197576040517f08c379a000000000000000000000000000000000000000000000000000000000815260040161318e90613d57565b60405180910390fd5b6131a360008383612d12565b6001600360008473ffffffffffffffffffffffffffffffffffffffff1673ffffffffffffffffffffffffffffffffffffffff16815260200190815260200160002060008282546131f3919061406d565b92505081905550816002600083815260200190815260200160002060006101000a81548173ffffffffffffffffffffffffffffffffffffffff021916908373ffffffffffffffffffffffffffffffffffffffff160217905550808273ffffffffffffffffffffffffffffffffffffffff16600073ffffffffffffffffffffffffffffffffffffffff167fddf252ad1be2c89b69c2b068fc378daa952ba7f163c4a11628f55a4df523b3ef60405160405180910390a46132b460008383612d17565b5050565b6040518060600160405280600390602082028036833780820191505090505090565b8280546132e690614227565b90600052602060002090601f016020900481019282613308576000855561334f565b82601f1061332157805160ff191683800117855561334f565b8280016001018555821561334f579182015b8281111561334e578251825591602001919060010190613333565b5b50905061335c9190613360565b5090565b5b80821115613379576000816000905550600101613361565b5090565b600061339061338b84613fa0565b613f7b565b905080838252602082019050828560208602820111156133af57600080fd5b60005b858110156133df57816133c588826134cf565b8452602084019350602083019250506001810190506133b2565b5050509392505050565b60006133fc6133f784613fcc565b613f7b565b90508281526020810184848401111561341457600080fd5b61341f8482856141e5565b509392505050565b600081359050613436816148c7565b92915050565b600082601f83011261344d57600080fd5b813561345d84826020860161337d565b91505092915050565b600081359050613475816148de565b92915050565b60008135905061348a816148f5565b92915050565b60008151905061349f816148f5565b92915050565b600082601f8301126134b657600080fd5b81356134c68482602086016133e9565b91505092915050565b6000813590506134de8161490c565b92915050565b6000815190506134f38161490c565b92915050565b60006020828403121561350b57600080fd5b600061351984828501613427565b91505092915050565b6000806040838503121561353557600080fd5b600061354385828601613427565b925050602061355485828601613427565b9150509250929050565b60008060006060848603121561357357600080fd5b600061358186828701613427565b935050602061359286828701613427565b92505060406135a3868287016134cf565b9150509250925092565b600080600080608085870312156135c357600080fd5b60006135d187828801613427565b94505060206135e287828801613427565b93505060406135f3878288016134cf565b925050606085013567ffffffffffffffff81111561361057600080fd5b61361c878288016134a5565b91505092959194509250565b6000806040838503121561363b57600080fd5b600061364985828601613427565b925050602061365a85828601613466565b9150509250929050565b6000806040838503121561367757600080fd5b600061368585828601613427565b9250506020613696858286016134cf565b9150509250929050565b6000602082840312156136b257600080fd5b60006136c08482850161347b565b91505092915050565b6000602082840312156136db57600080fd5b60006136e984828501613490565b91505092915050565b60006020828403121561370457600080fd5b6000613712848285016134cf565b91505092915050565b60006020828403121561372d57600080fd5b600061373b848285016134e4565b91505092915050565b6000806040838503121561375757600080fd5b6000613765858286016134cf565b925050602083013567ffffffffffffffff81111561378257600080fd5b61378e8582860161343c565b9150509250929050565b60006137a48383613b89565b60208301905092915050565b6137b981614128565b82525050565b6137c881614007565b6137d28184614035565b92506137dd82613ffd565b8060005b8381101561380e5781516137f58782613798565b965061380083614028565b9250506001810190506137e1565b505050505050565b61381f8161413a565b82525050565b61382e81614146565b82525050565b600061383f82614012565b6138498185614040565b93506138598185602086016141f4565b613862816143c0565b840191505092915050565b60006138788261401d565b6138828185614051565b93506138928185602086016141f4565b61389b816143c0565b840191505092915050565b60006138b18261401d565b6138bb8185614062565b93506138cb8185602086016141f4565b80840191505092915050565b60006138e4603283614051565b91506138ef826143d1565b604082019050919050565b6000613907602683614051565b915061391282614420565b604082019050919050565b600061392a602583614051565b91506139358261446f565b604082019050919050565b600061394d601c83614051565b9150613958826144be565b602082019050919050565b6000613970602483614051565b915061397b826144e7565b604082019050919050565b6000613993601983614051565b915061399e82614536565b602082019050919050565b60006139b6602c83614051565b91506139c18261455f565b604082019050919050565b60006139d9603883614051565b91506139e4826145ae565b604082019050919050565b60006139fc602a83614051565b9150613a07826145fd565b604082019050919050565b6000613a1f602983614051565b9150613a2a8261464c565b604082019050919050565b6000613a42602e83614051565b9150613a4d8261469b565b604082019050919050565b6000613a65602083614051565b9150613a70826146ea565b602082019050919050565b6000613a88603183614051565b9150613a9382614713565b604082019050919050565b6000613aab602c83614051565b9150613ab682614762565b604082019050919050565b6000613ace602083614051565b9150613ad9826147b1565b602082019050919050565b6000613af1602f83614051565b9150613afc826147da565b604082019050919050565b6000613b14602183614051565b9150613b1f82614829565b604082019050919050565b6000613b37603183614051565b9150613b4282614878565b604082019050919050565b613b568161417c565b82525050565b613b65816141aa565b82525050565b613b74816141b4565b82525050565b613b83816141c4565b82525050565b613b92816141d8565b82525050565b6000613ba482856138a6565b9150613bb082846138a6565b91508190509392505050565b6000602082019050613bd160008301846137b0565b92915050565b6000604082019050613bec60008301856137b0565b613bf960208301846137b0565b9392505050565b6000608082019050613c1560008301876137b0565b613c2260208301866137b0565b613c2f6040830185613b5c565b8181036060830152613c418184613834565b905095945050505050565b6000606082019050613c6160008301846137bf565b92915050565b6000602082019050613c7c6000830184613816565b92915050565b600060a082019050613c976000830188613825565b613ca46020830187613b7a565b613cb16040830186613b4d565b613cbe6060830185613b6b565b613ccb6080830184613b6b565b9695505050505050565b60006020820190508181036000830152613cef818461386d565b905092915050565b60006020820190508181036000830152613d10816138d7565b9050919050565b60006020820190508181036000830152613d30816138fa565b9050919050565b60006020820190508181036000830152613d508161391d565b9050919050565b60006020820190508181036000830152613d7081613940565b9050919050565b60006020820190508181036000830152613d9081613963565b9050919050565b60006020820190508181036000830152613db081613986565b9050919050565b60006020820190508181036000830152613dd0816139a9565b9050919050565b60006020820190508181036000830152613df0816139cc565b9050919050565b60006020820190508181036000830152613e10816139ef565b9050919050565b60006020820190508181036000830152613e3081613a12565b9050919050565b60006020820190508181036000830152613e5081613a35565b9050919050565b60006020820190508181036000830152613e7081613a58565b9050919050565b60006020820190508181036000830152613e9081613a7b565b9050919050565b60006020820190508181036000830152613eb081613a9e565b9050919050565b60006020820190508181036000830152613ed081613ac1565b9050919050565b60006020820190508181036000830152613ef081613ae4565b9050919050565b60006020820190508181036000830152613f1081613b07565b9050919050565b60006020820190508181036000830152613f3081613b2a565b9050919050565b6000602082019050613f4c6000830184613b5c565b92915050565b6000604082019050613f676000830185613b5c565b613f7460208301846137b0565b9392505050565b6000613f85613f96565b9050613f918282614259565b919050565b6000604051905090565b600067ffffffffffffffff821115613fbb57613fba614391565b5b602082029050602081019050919050565b600067ffffffffffffffff821115613fe757613fe6614391565b5b613ff0826143c0565b9050602081019050919050565b6000819050919050565b600060039050919050565b600081519050919050565b600081519050919050565b6000602082019050919050565b600081905092915050565b600082825260208201905092915050565b600082825260208201905092915050565b600081905092915050565b6000614078826141aa565b9150614083836141aa565b9250827fffffffffffffffffffffffffffffffffffffffffffffffffffffffffffffffff038211156140b8576140b7614304565b5b828201905092915050565b60006140ce826141aa565b91506140d9836141aa565b9250826140e9576140e8614333565b5b828204905092915050565b60006140ff826141aa565b915061410a836141aa565b92508282101561411d5761411c614304565b5b828203905092915050565b60006141338261418a565b9050919050565b60008115159050919050565b6000819050919050565b60007fffffffff0000000000000000000000000000000000000000000000000000000082169050919050565b600061ffff82169050919050565b600073ffffffffffffffffffffffffffffffffffffffff82169050919050565b6000819050919050565b600063ffffffff82169050919050565b600067ffffffffffffffff82169050919050565b600060ff82169050919050565b82818337600083830152505050565b60005b838110156142125780820151818401526020810190506141f7565b83811115614221576000848401525b50505050565b6000600282049050600182168061423f57607f821691505b6020821081141561425357614252614362565b5b50919050565b614262826143c0565b810181811067ffffffffffffffff8211171561428157614280614391565b5b80604052505050565b6000614295826141aa565b91507fffffffffffffffffffffffffffffffffffffffffffffffffffffffffffffffff8214156142c8576142c7614304565b5b600182019050919050565b60006142de826141aa565b91506142e9836141aa565b9250826142f9576142f8614333565b5b828206905092915050565b7f4e487b7100000000000000000000000000000000000000000000000000000000600052601160045260246000fd5b7f4e487b7100000000000000000000000000000000000000000000000000000000600052601260045260246000fd5b7f4e487b7100000000000000000000000000000000000000000000000000000000600052602260045260246000fd5b7f4e487b7100000000000000000000000000000000000000000000000000000000600052604160045260246000fd5b6000601f19601f8301169050919050565b7f4552433732313a207472616e7366657220746f206e6f6e20455243373231526560008201527f63656976657220696d706c656d656e7465720000000000000000000000000000602082015250565b7f4f776e61626c653a206e6577206f776e657220697320746865207a65726f206160008201527f6464726573730000000000000000000000000000000000000000000000000000602082015250565b7f4552433732313a207472616e736665722066726f6d20696e636f72726563742060008201527f6f776e6572000000000000000000000000000000000000000000000000000000602082015250565b7f4552433732313a20746f6b656e20616c7265616479206d696e74656400000000600082015250565b7f4552433732313a207472616e7366657220746f20746865207a65726f2061646460008201527f7265737300000000000000000000000000000000000000000000000000000000602082015250565b7f4552433732313a20617070726f766520746f2063616c6c657200000000000000600082015250565b7f4552433732313a206f70657261746f7220717565727920666f72206e6f6e657860008201527f697374656e7420746f6b656e0000000000000000000000000000000000000000602082015250565b7f4552433732313a20617070726f76652063616c6c6572206973206e6f74206f7760008201527f6e6572206e6f7220617070726f76656420666f7220616c6c0000000000000000602082015250565b7f4552433732313a2062616c616e636520717565727920666f7220746865207a6560008201527f726f206164647265737300000000000000000000000000000000000000000000602082015250565b7f4552433732313a206f776e657220717565727920666f72206e6f6e657869737460008201527f656e7420746f6b656e0000000000000000000000000000000000000000000000602082015250565b7f45524337323155524953746f726167653a2055524920736574206f66206e6f6e60008201527f6578697374656e7420746f6b656e000000000000000000000000000000000000602082015250565b7f4552433732313a206d696e7420746f20746865207a65726f2061646472657373600082015250565b7f45524337323155524953746f726167653a2055524920717565727920666f722060008201527f6e6f6e6578697374656e7420746f6b656e000000000000000000000000000000602082015250565b7f4552433732313a20617070726f76656420717565727920666f72206e6f6e657860008201527f697374656e7420746f6b656e0000000000000000000000000000000000000000602082015250565b7f4f776e61626c653a2063616c6c6572206973206e6f7420746865206f776e6572600082015250565b7f4552433732314d657461646174613a2055524920717565727920666f72206e6f60008201527f6e6578697374656e7420746f6b656e0000000000000000000000000000000000602082015250565b7f4552433732313a20617070726f76616c20746f2063757272656e74206f776e6560008201527f7200000000000000000000000000000000000000000000000000000000000000602082015250565b7f4552433732313a207472616e736665722063616c6c6572206973206e6f74206f60008201527f776e6572206e6f7220617070726f766564000000000000000000000000000000602082015250565b6148d081614128565b81146148db57600080fd5b50565b6148e78161413a565b81146148f257600080fd5b50565b6148fe81614150565b811461490957600080fd5b50565b614915816141aa565b811461492057600080fd5b5056fea2646970667358221220a82288a31a8f93ec3498dd13831948114078da313f9db4ef85845a2a591d2a7064736f6c63430008040033",
  "devdoc": {
    "kind": "dev",
    "methods": {
      "approve(address,uint256)": {
        "details": "See {IERC721-approve}."
      },
      "balanceOf(address)": {
        "details": "See {IERC721-balanceOf}."
      },
      "getApproved(uint256)": {
        "details": "See {IERC721-getApproved}."
      },
      "isApprovedForAll(address,address)": {
        "details": "See {IERC721-isApprovedForAll}."
      },
      "name()": {
        "details": "See {IERC721Metadata-name}."
      },
      "owner()": {
        "details": "Returns the address of the current owner."
      },
      "ownerOf(uint256)": {
        "details": "See {IERC721-ownerOf}."
      },
      "renounceOwnership()": {
        "details": "Leaves the contract without owner. It will not be possible to call `onlyOwner` functions anymore. Can only be called by the current owner. NOTE: Renouncing ownership will leave the contract without an owner, thereby removing any functionality that is only available to the owner."
      },
      "safeTransferFrom(address,address,uint256)": {
        "details": "See {IERC721-safeTransferFrom}."
      },
      "safeTransferFrom(address,address,uint256,bytes)": {
        "details": "See {IERC721-safeTransferFrom}."
      },
      "setApprovalForAll(address,bool)": {
        "details": "See {IERC721-setApprovalForAll}."
      },
      "supportsInterface(bytes4)": {
        "details": "See {IERC165-supportsInterface}."
      },
      "symbol()": {
        "details": "See {IERC721Metadata-symbol}."
      },
      "tokenURI(uint256)": {
        "details": "See {IERC721Metadata-tokenURI}."
      },
      "transferFrom(address,address,uint256)": {
        "details": "See {IERC721-transferFrom}."
      },
      "transferOwnership(address)": {
        "details": "Transfers ownership of the contract to a new account (`newOwner`). Can only be called by the current owner."
      }
    },
    "version": 1
  },
  "userdoc": {
    "kind": "user",
    "methods": {},
    "version": 1
  },
  "storageLayout": {
    "storage": [
      {
        "astId": 277,
        "contract": "contracts/NarutoPanels.sol:NarutoPanels",
        "label": "_name",
        "offset": 0,
        "slot": "0",
        "type": "t_string_storage"
      },
      {
        "astId": 279,
        "contract": "contracts/NarutoPanels.sol:NarutoPanels",
        "label": "_symbol",
        "offset": 0,
        "slot": "1",
        "type": "t_string_storage"
      },
      {
        "astId": 283,
        "contract": "contracts/NarutoPanels.sol:NarutoPanels",
        "label": "_owners",
        "offset": 0,
        "slot": "2",
        "type": "t_mapping(t_uint256,t_address)"
      },
      {
        "astId": 287,
        "contract": "contracts/NarutoPanels.sol:NarutoPanels",
        "label": "_balances",
        "offset": 0,
        "slot": "3",
        "type": "t_mapping(t_address,t_uint256)"
      },
      {
        "astId": 291,
        "contract": "contracts/NarutoPanels.sol:NarutoPanels",
        "label": "_tokenApprovals",
        "offset": 0,
        "slot": "4",
        "type": "t_mapping(t_uint256,t_address)"
      },
      {
        "astId": 297,
        "contract": "contracts/NarutoPanels.sol:NarutoPanels",
        "label": "_operatorApprovals",
        "offset": 0,
        "slot": "5",
        "type": "t_mapping(t_address,t_mapping(t_address,t_bool))"
      },
      {
        "astId": 1264,
        "contract": "contracts/NarutoPanels.sol:NarutoPanels",
        "label": "_tokenURIs",
        "offset": 0,
        "slot": "6",
        "type": "t_mapping(t_uint256,t_string_storage)"
      },
      {
        "astId": 154,
        "contract": "contracts/NarutoPanels.sol:NarutoPanels",
        "label": "_owner",
        "offset": 0,
        "slot": "7",
        "type": "t_address"
      },
      {
        "astId": 2061,
        "contract": "contracts/NarutoPanels.sol:NarutoPanels",
        "label": "_tokenIds",
        "offset": 0,
        "slot": "8",
        "type": "t_struct(Counter)1729_storage"
      },
      {
        "astId": 2129,
        "contract": "contracts/NarutoPanels.sol:NarutoPanels",
        "label": "i_sadTokenUrisClassS",
        "offset": 0,
        "slot": "9",
        "type": "t_array(t_string_storage)dyn_storage"
      },
      {
        "astId": 2132,
        "contract": "contracts/NarutoPanels.sol:NarutoPanels",
        "label": "i_sadTokenUrisClassA",
        "offset": 0,
        "slot": "10",
        "type": "t_array(t_string_storage)dyn_storage"
      },
      {
        "astId": 2135,
        "contract": "contracts/NarutoPanels.sol:NarutoPanels",
        "label": "i_sadTokenUrisClassB",
        "offset": 0,
        "slot": "11",
        "type": "t_array(t_string_storage)dyn_storage"
      },
      {
        "astId": 2138,
        "contract": "contracts/NarutoPanels.sol:NarutoPanels",
        "label": "i_happyTokenUrisClassS",
        "offset": 0,
        "slot": "12",
        "type": "t_array(t_string_storage)dyn_storage"
      },
      {
        "astId": 2141,
        "contract": "contracts/NarutoPanels.sol:NarutoPanels",
        "label": "i_happyTokenUrisClassA",
        "offset": 0,
        "slot": "13",
        "type": "t_array(t_string_storage)dyn_storage"
      },
      {
        "astId": 2144,
        "contract": "contracts/NarutoPanels.sol:NarutoPanels",
        "label": "i_happyTokenUrisClassB",
        "offset": 0,
        "slot": "14",
        "type": "t_array(t_string_storage)dyn_storage"
      },
      {
        "astId": 2154,
        "contract": "contracts/NarutoPanels.sol:NarutoPanels",
        "label": "s_requestIdToSender",
        "offset": 0,
        "slot": "15",
        "type": "t_mapping(t_uint256,t_address)"
      },
      {
        "astId": 2158,
        "contract": "contracts/NarutoPanels.sol:NarutoPanels",
        "label": "s_tokenIdToModdedRng",
        "offset": 0,
        "slot": "16",
        "type": "t_mapping(t_uint256,t_uint256)"
      },
      {
        "astId": 2162,
        "contract": "contracts/NarutoPanels.sol:NarutoPanels",
        "label": "s_senderMinted",
        "offset": 0,
        "slot": "17",
        "type": "t_mapping(t_address,t_bool)"
      }
    ],
    "types": {
      "t_address": {
        "encoding": "inplace",
        "label": "address",
        "numberOfBytes": "20"
      },
      "t_array(t_string_storage)dyn_storage": {
        "base": "t_string_storage",
        "encoding": "dynamic_array",
        "label": "string[]",
        "numberOfBytes": "32"
      },
      "t_bool": {
        "encoding": "inplace",
        "label": "bool",
        "numberOfBytes": "1"
      },
      "t_mapping(t_address,t_bool)": {
        "encoding": "mapping",
        "key": "t_address",
        "label": "mapping(address => bool)",
        "numberOfBytes": "32",
        "value": "t_bool"
      },
      "t_mapping(t_address,t_mapping(t_address,t_bool))": {
        "encoding": "mapping",
        "key": "t_address",
        "label": "mapping(address => mapping(address => bool))",
        "numberOfBytes": "32",
        "value": "t_mapping(t_address,t_bool)"
      },
      "t_mapping(t_address,t_uint256)": {
        "encoding": "mapping",
        "key": "t_address",
        "label": "mapping(address => uint256)",
        "numberOfBytes": "32",
        "value": "t_uint256"
      },
      "t_mapping(t_uint256,t_address)": {
        "encoding": "mapping",
        "key": "t_uint256",
        "label": "mapping(uint256 => address)",
        "numberOfBytes": "32",
        "value": "t_address"
      },
      "t_mapping(t_uint256,t_string_storage)": {
        "encoding": "mapping",
        "key": "t_uint256",
        "label": "mapping(uint256 => string)",
        "numberOfBytes": "32",
        "value": "t_string_storage"
      },
      "t_mapping(t_uint256,t_uint256)": {
        "encoding": "mapping",
        "key": "t_uint256",
        "label": "mapping(uint256 => uint256)",
        "numberOfBytes": "32",
        "value": "t_uint256"
      },
      "t_string_storage": {
        "encoding": "bytes",
        "label": "string",
        "numberOfBytes": "32"
      },
      "t_struct(Counter)1729_storage": {
        "encoding": "inplace",
        "label": "struct Counters.Counter",
        "members": [
          {
            "astId": 1728,
            "contract": "contracts/NarutoPanels.sol:NarutoPanels",
            "label": "_value",
            "offset": 0,
            "slot": "0",
            "type": "t_uint256"
          }
        ],
        "numberOfBytes": "32"
      },
      "t_uint256": {
        "encoding": "inplace",
        "label": "uint256",
        "numberOfBytes": "32"
      }
    }
  }
}